{
  "_format": "hh-sol-artifact-1",
  "contractName": "FHEVoteDragonBall",
  "sourceName": "contracts/FHEVoteDragonBall.sol",
  "abi": [
    {
      "inputs": [
        {
          "internalType": "address",
          "name": "user",
          "type": "address"
        }
      ],
      "name": "getVote",
      "outputs": [
        {
          "internalType": "euint32",
          "name": "",
          "type": "bytes32"
        }
      ],
      "stateMutability": "view",
      "type": "function"
    },
    {
      "inputs": [
        {
          "internalType": "address",
          "name": "user",
          "type": "address"
        }
      ],
      "name": "hasVoted",
      "outputs": [
        {
          "internalType": "bool",
          "name": "",
          "type": "bool"
        }
      ],
      "stateMutability": "view",
      "type": "function"
    },
    {
      "inputs": [],
      "name": "protocolId",
      "outputs": [
        {
          "internalType": "uint256",
          "name": "",
          "type": "uint256"
        }
      ],
      "stateMutability": "pure",
      "type": "function"
    },
    {
      "inputs": [
        {
          "internalType": "externalEuint32",
          "name": "choiceEncrypted",
          "type": "bytes32"
        },
        {
          "internalType": "bytes",
          "name": "proof",
          "type": "bytes"
        }
      ],
      "name": "vote",
      "outputs": [],
      "stateMutability": "nonpayable",
      "type": "function"
    }
  ],
  "bytecode": "0x608060405234801561000f575f5ffd5b5061018a6100ae604080516080810182525f80825260208201819052918101829052606081019190915250604080516080810182527350157cffd6bbfa2dece204a89ec419c23ef5755d815273cd3ab3bd6bcc0c0bf3e27912a92043e817b1cf69602082015273a02cda4ca3a71d7c46997716f4283aa851c2881291810191909152731364cbbf2cdf5032c47d8226a6f6fbd2afcdacac606082015290565b80517f9e7b61f58c47dc699ac88507c4f5bb9f121c03808c5676a8078fe583e464970080546001600160a01b03199081166001600160a01b039384161790915560208301517f9e7b61f58c47dc699ac88507c4f5bb9f121c03808c5676a8078fe583e46497018054831691841691909117905560408301517f9e7b61f58c47dc699ac88507c4f5bb9f121c03808c5676a8078fe583e46497028054831691841691909117905560608301517f9e7b61f58c47dc699ac88507c4f5bb9f121c03808c5676a8078fe583e46497038054909216921691909117905550565b6104e9806101975f395ff3fe608060405234801561000f575f5ffd5b506004361061004a575f3560e01c806309eef43e1461004e5780638d337b811461008e578063da1f12ab146100c4578063fffeba4e146100cc575b5f5ffd5b61007961005c3660046103b9565b6001600160a01b03165f9081526001602052604090205460ff1690565b60405190151581526020015b60405180910390f35b6100b661009c3660046103b9565b6001600160a01b03165f9081526020819052604090205490565b604051908152602001610085565b6127116100b6565b6100df6100da3660046103df565b6100e1565b005b335f9081526001602052604090205460ff16156101445760405162461bcd60e51b815260206004820152600d60248201527f416c726561647920766f74656400000000000000000000000000000000000000604482015260640160405180910390fd5b5f6101848484848080601f0160208091040260200160405190810160405280939291908181526020018383808284375f920191909152506101db92505050565b335f818152602081815260408083208581556001808452918420805460ff1916909217909155919052549192506101bb91906101ef565b50335f908152602081905260409020546101d490610201565b5050505050565b5f6101e883836004610210565b9392505050565b5f6101fa8383610330565b5090919050565b5f61020c8230610330565b5090565b7f9e7b61f58c47dc699ac88507c4f5bb9f121c03808c5676a8078fe583e46497015460405163196d0b9b60e01b81525f917f9e7b61f58c47dc699ac88507c4f5bb9f121c03808c5676a8078fe583e4649700916001600160a01b039091169063196d0b9b90610289908890339089908990600401610456565b6020604051808303815f875af11580156102a5573d5f5f3e3d5ffd5b505050506040513d601f19601f820116820180604052508101906102c991906104c5565b8154604051630f8e573b60e21b8152600481018390523360248201529193506001600160a01b031690633e395cec906044015f604051808303815f87803b158015610312575f5ffd5b505af1158015610324573d5f5f3e3d5ffd5b50505050509392505050565b5f7f9e7b61f58c47dc699ac88507c4f5bb9f121c03808c5676a8078fe583e46497008054604051635ca4b5b160e11b8152600481018690526001600160a01b03858116602483015292935091169063b9496b62906044015f604051808303815f87803b15801561039e575f5ffd5b505af11580156103b0573d5f5f3e3d5ffd5b50505050505050565b5f602082840312156103c9575f5ffd5b81356001600160a01b03811681146101e8575f5ffd5b5f5f5f604084860312156103f1575f5ffd5b83359250602084013567ffffffffffffffff81111561040e575f5ffd5b8401601f8101861361041e575f5ffd5b803567ffffffffffffffff811115610434575f5ffd5b866020828401011115610445575f5ffd5b939660209190910195509293505050565b8481526001600160a01b0384166020820152608060408201525f8351806080840152806020860160a085015e5f60a0828501015260a0601f19601f830116840101915050605483106104b657634e487b7160e01b5f52602160045260245ffd5b82606083015295945050505050565b5f602082840312156104d5575f5ffd5b505191905056fea164736f6c634300081b000a",
  "linkReferences": {},
  "deployedLinkReferences": {}
}